:10037C00302D416761696E204164643A30782020E9
:10038C00002A2D446563202020202020232D496E37
:10039C0063003132333435363738392A3023FEFD99
:0603AC00FBF7380E06010C
:0704B000010800C182C10335
:0104B8002221
:1004A000EF1FAC0670011E4C60051204B880F122EB
:040441007F287E0092
:10044500E4FDFCC3ED9FEC9E5015E4FBFA0BBB00ED
:0F045500010AEB64644A70F50DBD00010C80E4F0
:010464002275
:1002D000EF540CFEBE0806E50854036207EF30E059
:1002E00003D38001C392B6EF30E103D38001C39200
:1002F000B7EF30E203D38001C392A7EF30E303D31B
:0E0300008001C392A68F087F327E000204A007
:10019E0078227C007D007BFF7A03799E7E007F0CA7
:1001AE001200D3782E7C007D007BFF7A0379AA7E25
:1001BE00007F041200D3E4F9F582F583AF82742E2A
:1001CE002FF8E6F590209414120441AF82EF75F0EB
:1001DE0003A42422F8E6F93094FD802C2095141205
:1001EE000441AF82EF75F003A42423F8E6F93095AD
:1001FE00FD8015209618120441AF82EF75F003A40E
:10020E002424F8E6F93096FD120441AF0122A3E54D
:09021E00826404458370A5AF0160
:0102270022B4
:1003460078227C007D007BFF7A0379AE7E007F04F5
:100356001200D3E4F526F52774222527F8E6FF12C6
:1003660004650527E52770020526C39404E526647F
:0503760080948040E3CB
:01037B00225F
:100465008F80C2A1D2A07F047E00120445C2A07F66
:040475000A0204452E
:100479008F80D2A1D2A07F047E00120445C2A07F42
:040489000A0204451A
:10030E008B228A238924ED540FFEEF60047FC08078
:10031E00027F80EE4FFF120465AB22AA23A924129E
:10032E0000F960130524E5247002052314F9120068
:08033E00F9FF12047980E222AC
:02028000AE07C7
:10028200EB54F0C4540FF9EB540FFFC3940A500619
:10029200EF2430FF8006EB540F2457FF8F22E9C36F
:1002A200940AE9540F50052430FF80032457FFA914
:1002B20007ED540FFFEE60047EC080027E80EF4E99
:0E02C200FF120465AF01120479AF2202047925
:1003E300EF14600D14601024027012C2A3C2A48023
:1003F3000FD2A3C2A48009C2A3D2A480037F002288
:0E040300E4904000F07F207E031204A0E0FF92
:0104110022C8
:10048D00C2B290C000EFF0C2B37F027E001204A092
:03049D00D2B322B5
:10041200E4F509750A01F50B750C01F50D750E0170
:10042200F50F751001F511F512F513F514F515F523
:0F04320016751701F518F519F51AF51BF51C22AB
:1003B200C200C201E4FF7DB87C0BFBFAC3EB9DEAED
:1003C2009C501BA2B49202A202300301B35008A2B5
:1003D2000292033002010F0BBB00010A80DE8F097B
:0103E20022F8
:10022800E4F5217F64FE1204451204121203467B92
:10023800FF7A03797CE4FDFF12030E7BFF7A0379D2
:100248008DE4FD7F0112030EAB217D0EE4FF120247
:1002580080AF2112048D800FEF642A600FEF6430A5
:10026800600AEF6423600512019E80ECBF2302053B
:0802780021BF2AD4152180D01A
:03000000020112E8
:0C011200787FE4F6D8FD758131020159B8
:10000300E709F608DFFA8046E709F208DFFA803EDF
:1000130088828C83E709F0A3DFFA8032E309F608CC
:10002300DFFA8078E309F208DFFA807088828C8334
:10003300E309F0A3DFFA806489828A83E0A3F608E8
:10004300DFFA805889828A83E0A3F208DFFA804CC2
:1000530080D280FA80C680D4806980F28033801099
:1000630080A680EA809A80A880DA80E280CA803302
:1000730089828A83ECFAE493A3C8C582C8CCC5837A
:10008300CCF0A3C8C582C8CCC583CCDFE9DEE7804A
:100093000D89828A83E493A3F608DFF9ECFAA9F0C9
:1000A300EDFB2289828A83ECFAE0A3C8C582C8CC1F
:1000B300C583CCF0A3C8C582C8CCC583CCDFEADE38
:1000C300E880DB89828A83E493A3F208DFF980CC9A
:1000D30088F0EF60010E4E60C388F0ED2402B40493
:1000E3000050B9F582EB2402B4040050AF2323453A
:0600F3008223900053730C
:1000F900BB010689828A83E0225002E722BBFE0205
:09010900E32289828A83E4932237
:10011E00020228E493A3F8E493A34003F68001F2CD
:10012E0008DFF48029E493A3F85407240CC8C333E2
:10013E00C4540F4420C8834004F456800146F6DFB1
:10014E00E4800B01020408102040809004B0E47E8D
:10015E00019360BCA3FF543F30E509541FFEE493A6
:10016E00A360010ECF54C025E060A840B8E493A36D
:10017E00FAE493A3F8E493A3C8C582C8CAC583CA98
:10018E00F0A3C8C582C8CAC583CADFE9DEE780BE50
:0104B7000044
:00000001FF
