:100E7500496E636F727265637420202020202020E4
:100E850000696E737472756374696F6E73202020C8
:100E95002000537065656420646576696174696FC7
:100EA5006E20007365766572652020202020202045
:100EB500202020002020202020202020202020204D
:100EC500202020200050726F706572207370656558
:100ED5006420202020004675656C206973206C6FA6
:100EE500776572202020007468616E202020204CD8
:100EF500697465722020200050726F7065722061E0
:100F05006D6F756E74202020006F66206675656CA8
:100F150020202020202020202000496E616E696D50
:100F2500617465206869676820200074656D706567
:100F350072617475726520202020200054656D70E3
:100F450065726174757265202020202000657863C4
:100F550065656465642020202020202020005072D3
:100F65006F7065722020202020202020202000493D
:100F75006D70726F70657220766F6C746167650055
:100F850050726F70657220766F6C74616765202092
:100F95000046726F6E74206C65667420646F6F72A4
:100FA50020006F70656E202020202020202020202A
:100FB50020200046726F6E74207269676874206421
:100FC5006F6F720052656172206C65667420646F84
:100FD5006F72202000526561722072696768742003
:100FE500646F6F72200050726F70657220646F6F4E
:100FF50072732020202000537461747573202020A3
:101005002020202020202000202057656C636F6D54
:101015006520746F202020200020562E412E53205D
:1010250050726F6A6563742020002020204D616432
:10103500652042793A2020202020002044766972DC
:1010450020616E6420456C69202020005B543A20A5
:101055002020435D5B563A202020565D005B463AD2
:101065002020204C5D5B533A2020204B5D00380C3E
:1010750006013132333435363738392A3023FEFD0F
:02108500FBF777
:0E1E3D0042000000004200020000C180C1010E
:011E5300226C
:101E1D00EF1FAC0670011E4C6005121E5380F1229F
:041DAC007F287E000E
:101DB000E4FDFCC3ED9FEC9E5015E4FBFA0BBB0069
:0F1DC000010AEB64644A70F50DBD00010C80E46C
:011DCF0022F1
:101B5F00E49001ACF0A304F0E49001B0F0A304F022
:101B6F00E49001AEF0A304F0E49001B2F0A304F00E
:101B7F00E4A3F0A3F0A3F0A3F0A3F0A3F0A304F069
:101B8F00E4A3F0A3F0A3F0A3F0A3F0A3F09001CA95
:101B9F00F0F99001C1C9F0A3F0A3E9F0A3E4F0A319
:0D1BAF00F0A3F0F9A3C9F0A3F0A3E9F02220
:101C090078CB7C017D017BFF7A1079737E007F049C
:101C19001208B1E49001CFF0A3F09001CFE0FEA348
:101C2900E0FFC39404EE64809480501F74CB2FF5B9
:101C39008274013EF583E0FF121DE89001D0E004B3
:0B1C4900F070D79001CFE004F080CFD6
:011C5400226D
:101DE8008F80C2A1D2A07F047E00121DB0C2A002C3
:021DF8001DB01C
:101DFA008F80D2A1D2A07F047E00121DB0C2A002A1
:021E0A001DB009
:061C55007BFFE4FD7F01AE
:101C5B009001CBEBF0A3EAF0A3E9F0ED540FFEEF0C
:101C6B0060047FC080027F80EE4FFF121DE8900161
:101C7B00CBE0FBA3E0FAA3E0F91208D760179001C1
:101C8B00CBA3E475F0011209B8A9F0FA1208D7FF3B
:061C9B00121DFA80D9229F
:021AFA00AC0737
:101AFC009001CB7420F0A3F0EB75F00A84E5F02490
:101B0C0030F9EBC3940A4025EB75F00A8475F00AA2
:101B1C0084E5F02430F0EBC394644011EB75F06471
:101B2C008475F00A84E5F024309001CBF0ED540F6D
:101B3C00FFEC60047EC080027E80EF4EFF121DE839
:101B4C009001CBE0FF121DFAA3E0FF121DFAAF01CA
:031B5C00021DFA6D
:101E0C00D2B27FE87E03121DB0C2B2121DB0D2B3A3
:011E1C0022A3
:101D6000AD07C2B290C000EDF07F327E00121E1DA2
:101D7000E0FDC2B37F647E00121E1DD2B320B5FD0C
:071D80007F327E00021DB05E
:041CD3007B017DAD67
:101CD7009001CBEBF0A3EAF0A3E9F0ED12091D7B2D
:101CE700007A007900C003C002C0019001CBE0FB7D
:0D1CF700A3E0FAA3E0F9900001120A79229F
:101D34009001CBEBF0A3EAF0A3E9F0A3E0FBA3E06E
:101D4400FAA3E0F9C003C002C0019001CBE0FBA3F9
:0C1D5400E0FAA3E0F9900001120A7922E5
:0A156A00A3F07B017A0079387D02BE
:0B1574009001CBEBF0A3EAF0A3E9F03C
:10157F004A4B70030216769001CBE0FBA3E0FAA36F
:10158F00E0F91209DA9001D2EBF0A3EAF0A3E9F047
:10159F00ED703D9001D2E0FBA3E0FAA3E0F99000DB
:1015AF0001120A499001D2EBF0A3EAF0A3E9F090FF
:1015BF0001CFE0FBA3E0FAA3E0F9C003C002C00132
:1015CF009001CBE0FBA3E0FAA3E0F91209FA8075D2
:1015DF00E4FFEFC39D50309001D2E0F9A3E0FAA3EE
:1015EF00E0A3C9F0A3EAF0A3E9F09001D2E0FBA3D6
:1015FF00A3E0F9900001120A499001D2EBF0A3EA9F
:10160F00F0A3E9F00F80CB9001D2E0FBA3E0FAA3A7
:10161F00E0F9900001120A499001D2EBF0A3EAF031
:10162F00A3E9F09001CFE0FBA3E0FAA3E0F9C00338
:10163F00C002C0019001D5E0FBA3E0FAA3E0F9904E
:10164F000001120A799001D2E0FBA3E0FAA3E0F9BE
:10165F00C003C002C0019001CFE0FBA3E0FAA3E0FA
:07166F00F9900001120A7955
:011676002251
:10193A009001CBEBF0A3EAF0A3E9F0A3E0FBA3E06C
:10194A00FAA3E0F9C003C002C0019001CBE0FBA3F7
:10195A00E0FAA3E0F91209FA9001D1E0FBA3E0FA58
:10196A00A3E0F9C003C002C0019001CBE0FBA3E0F1
:10197A00FAA3E0F9900003120A799001D4E0FBA3DC
:10198A00E0FAA3E0F9C003C002C0019001CBE0FB7A
:10199A00A3E0FAA3E0F9900006120A799001CBE0DD
:1019AA00FBA3E0FAA3E0F9900009E412092F7B00F7
:1019BA007A007900C003C002C0019001CBE0FBA30A
:0C19CA00E0FAA3E0F990000A120A79226A
:071E4C00900009ED02092FCF
:061087007B017A00799D57
:0B108D009001CBEBF0A3EAF0A3E9F028
:10109800C2039001C7E0FBA3E0FAA3E0F9EA494BD9
:1010A80070030211979001C4E0F9A3E0FAA3E0905D
:1010B80001CEC9F0A3EAF0A3E9F09001CBE0FBA3CD
:1010C800E0FAA3E0F9C003C002C001A3E0FBA3E07B
:1010D800FAA3E0F9D082D083D0E06B7008E965828A
:1010E8007003EA65837002D2039001CEE0FBA3E0AF
:1010F800FAA3E0F990000A120A499001CEEBF0A396
:10110800EAF0A3E9F09001C7E0FBA3E0FAA3E0F955
:1011180090000A120A49C003C002C0019001CEE043
:10112800FBA3E0FAA3E0F9D082D083D0E06B70088B
:10113800E965827003EA658370803003030211E970
:101148009001CBE0FBA3E0FAA3E0F9C003C002C022
:10115800019001C7E0FBA3E0FAA3E0F990000A12AE
:101168000A799001C7E0FBA3E0FAA3E0F990000A2E
:10117800120A499001C7EBF0A3EAF0A3E9F07B005B
:101188007A007900C003C002C0019001C780449072
:1011980001CBE0F9A3E0FAA3E09001C7C9F0A3EA04
:1011A800F0A3E9F09001CBE0FBA3A3E0F99001C420
:1011B800EBF0A3EAF0A3E9F01209DA9001C1EBF031
:1011C800A3EAF0A3E9F07B007A007900C003C0022B
:1011D800C001A3E0FBA3E0FAA3E0F990000A120A19
:0111E800798D
:0111E90022E3
:100003007B017A0079797D01121CD79001CE7401AE
:10001300F0A37400F0A37479F0A374FFF0A3740E3B
:10002300F0A37475F0A374FFF0A3740EF0A37486A9
:10003300F07B017A00790412193A7B017A00797D09
:100043007D0A121CD77B017A0079817D10121CD79F
:100053007B017A0079857D15121CD77B017A0079A3
:10006300897D22121CD79001CE7401F0A37400F095
:10007300A37481F07B017A00797D121D349001CE47
:100083007401F0A37400F0A37485F07B017A007906
:1000930081121D349001CE7401F0A37400F0A37497
:1000A30089F07B017A007985121D349001CE7401A9
:1000B300F0A37400F0A3747DF0A374FFF0A3740E97
:1000C300F0A37497F0A374FFF0A3740EF0A374A8C5
:1000D300F07B017A00791112193A7B017A00798D4C
:1000E3007D0A121CD77B017A0079917D1B121CD7E4
:1000F3007B017A0079957D22121CD79001CE740181
:10010300F0A37400F0A37491F07B017A00798D124F
:100113001D349001CE7401F0A37400F0A37495F024
:100123007B017A007991121D349001CE7401F0A302
:100133007400F0A3748DF0A374FFF0A3740EF0A306
:100143007497F0A374FFF0A3740EF0A374B9F07B5B
:10015300017A00791E12193A7B017A0079997D2779
:10016300121CD77B017A0079F87D32121CD79001DB
:10017300CE7401F0A37400F0A374F8F07B017A004D
:100183007999121D349001CE7401F0A37400F0A389
:100193007499F0A374FFF0A3740EF0A374CAF0A3D0
:1001A30074FFF0A3740EF0A374B9F07B017A0079A5
:1001B3002B12193A7B017A0179007D2C121CD77B13
:1001C300017A01790C7D37121CD77B017A01791CE6
:1001D3007D43121CD77B017A0179307D48121CD7ED
:1001E3007B017A0179447D4E121CD77B017A017918
:1001F300587D53121CD77B017A01796C7D59121CEF
:10020300D77B017A0179807D60121CD77B017A014B
:1002130079907D65121CD77B017A0079FC7D6D1284
:100223001CD77B017A0179087D72121CD77B017A76
:100233000179187D7A121CD77B017A01792C7D3DD7
:10024300121CD79001CE7401F0A37401F0A3740CB7
:10025300F07B017A017900121D349001CE7401F014
:10026300A37401F0A3746CF07B017A01790C121D65
:10027300349001CE7401F0A37401F0A3742CF07BCD
:10028300017A01796C121D349001CE7401F0A374CC
:1002930001F0A37400F0A374FFF0A3740EF0A37431
:1002A300DBF0A374FFF0A3740EF0A374ECF07B01F6
:1002B3007A00793812193A7B017A0079387D051270
:1002C3001E4C7A0179407D2C121CD77B017A01796F
:1002D300547D32121CD79001CE7401F0A37401F047
:1002E300A37454F07B017A017940121D349001CE3E
:1002F3007401F0A37401F0A37440F0A374FFF0A39E
:10030300740EF0A374FDF0A374FFF0A3740FF0A3B5
:10031300740EF07B017A00794512193A7B017A0158
:1003230079687D83121CD77B017A01797C7D8712E2
:100333001CD79001CE7401F0A37401F0A3747CF078
:100343007B017A017968121D349001CE7401F0A308
:100353007401F0A37468F0A374FFF0A3740FF0A307
:10036300741FF0A374FFF0A3740FF0A37430F07B39
:10037300017A00795212193A7B017A01798C7D90C6
:10038300121CD77B017A01799C7D83121CD77B01D8
:100393007A0179047D0A121CD79001CE7401F0A36F
:1003A3007401F0A3749CF07B017A01798C121D34E3
:1003B3009001CE7401F0A37401F0A37404F07B01E7
:1003C3007A01799C121D349001CE7401F0A374015B
:1003D300F0A3748CF0A374FFF0A3740FF0A3744123
:1003E300F0A374FFF0A3740FF0A37452F07B017AAF
:1003F30000795F12193A7B017A0179147D83121C0B
:10040300D77B017A0179287D32121CD79001CE74F3
:1004130001F0A37401F0A37428F07B017A0179142D
:10042300121D349001CE7401F0A37401F0A374146F
:10043300F0A374FFF0A3740FF0A37463F0A374FF2D
:10044300F0A3740FF0A37430F07B017A00796C127F
:10045300193A7B017A01793C7D95121CD77B017A8D
:100463000179507DA1121CD79001CE7401F0A374C1
:1004730001F0A37450F07B017A01793C121D349092
:1004830001CE7401F0A37401F0A3743CF0A374FFD4
:10049300F0A3740FF0A37474F0A374FFF0A3740EAD
:1004A300F0A374B9F07B017A00799D12193A7B01AC
:1004B3007A0179647D95121CD77B017A0179787D65
:1004C3009C121CD79001CE7401F0A37401F0A374A5
:1004D30078F07B017A017964121D349001CE7401A6
:1004E300F0A37401F0A37464F0A374FFF0A3740F7A
:1004F300F0A37485F0A374FFF0A3740EF0A374B992
:10050300F07B017A0079AA12193A7A017988121CD0
:10051300D37B017A0179987DB2121CD77B017A01D2
:1005230079A47DBB121CD77B017A0179107DC71298
:100533001CD79001CE7401F0A37401F0A37498F05A
:100543007B017A017988121D349001CE7401F0A3E6
:100553007401F0A374A4F07B017A017998121D341D
:100563009001CE7401F0A37401F0A37410F07B0129
:100573007A0179A4121D349001CE7401F0A37401A1
:10058300F0A37488F0A374FFF0A3740FF0A3749620
:10059300F0A374FFF0A3740FF0A374A7F07B017AA8
:1005A3000079B712193A7A017924121CD37B017AA4
:1005B3000179387DB7121CD77B017A01794C7DBB59
:1005C300121CD77B017A0179607DC7121CD7900179
:1005D300CE7401F0A37401F0A37438F07B017A01A7
:1005E3007924121D349001CE7401F0A37401F0A399
:1005F300744CF07B017A017938121D349001CE746A
:1006030001F0A37401F0A37460F07B017A01794CCB
:10061300121D349001CE7401F0A37401F0A374246D
:10062300F0A374FFF0A3740FF0A374B8F0A374FFE6
:10063300F0A3740FF0A374A7F07B017A0079C412BE
:10064300193A7B017A0179747DAD121CD77B017A4B
:100653000179847DB2121CD77B017A0179947DBF25
:10066300121CD77B017A0179A07DC7121CD7900198
:10067300CE7401F0A37401F0A37484F07B017A01BA
:100683007974121D349001CE7401F0A37401F0A3A8
:100693007494F07B017A017984121D349001CE7435
:1006A30001F0A37401F0A374A0F07B017A017994A3
:1006B300121D349001CE7401F0A37401F0A374747D
:1006C300F0A374FFF0A3740FF0A374C9F0A374FF35
:1006D300F0A3740FF0A374A7F07B017A0079D11211
:1006E300193A7B017A0179A87DAD121CD77B017A77
:1006F3000179207DB7121CD77B017A0179347DBF44
:10070300121CD77B017A0179487DC7121CD790014F
:10071300CE7401F0A37401F0A37420F07B017A017D
:1007230079A8121D349001CE7401F0A37401F0A3D3
:100733007434F07B017A017920121D349001CE7458
:1007430001F0A37401F0A37448F07B017A017934BA
:10075300121D349001CE7401F0A37401F0A374A8A8
:10076300F0A374FFF0A3740FF0A374DAF0A374FF83
:10077300F0A3740FF0A374A7F07B017A0079DE1263
:10078300193A7B017A01795C7DA6121CD77B017A29
:100793000179707D9C121CD79001CE7401F0A37473
:1007A30001F0A37470F07B017A01795C121D34901F
:1007B30001CE7401F0A37401F0A3745CF0A374FF81
:1007C300F0A3740FF0A374EBF0A374FFF0A3740F02
:0E07D300F0A374FCF07B017A0079EB02193A76
:1011EA009001C4E0FBA3E0FAA3E0F91209DAC00314
:1011FA00C002C0019001C1E0FBA3E0FAA3E0F9D06C
:10120A0082D083D0E06B7008E965827003EA658357
:10121A0070599001C4E0FBA3E0FAA3E0F91209DADD
:10122A00EA494B60469001C4E0FBA3E0FAA3E0F967
:10123A00900003120A49E4FDFF121C5B9001C4E00E
:10124A00FBA3E0FAA3E0F9900006120A49121C5720
:10125A009001C4E0FBA3E0FAA3E0F99000091208A8
:10126A00F0FB60077D047F01121AFA9001C4E0FBCB
:10127A00A3E0FAA3E0F9EA494B700302133A90019A
:10128A00C1E0FBA3E0FAA3E0F94A601A1208D7FF0B
:10129A00121D609001C1E0FBA3E0FAA3E0F99000FF
:1012AA0001120A4980619001C4E0FBA3E0FAA3E0BD
:1012BA00F990000A120A49E94A60589001C4E0FB11
:1012CA00A3E0FAA3E0F9C003C002C001A3E0FBA3B4
:1012DA00E0FAA3E0F9D082D083D0E06B7008E96528
:1012EA00827003EA6583602B9001C4E0FBA3E0FAF5
:1012FA00A3E0F990000A120A499001C4EBF0A3EAAC
:10130A00F0A3E9F01209DA9001C1EBF0A3EAF0A325
:10131A00E9F0229001C4E4F0A3F0A3F0F99001C12E
:10132A00C9F0A3F0A3E9F09001C7E4F0A3F0A3F099
:01133A002290
:101DD0009001C4A3E0FAA3E04A700BA3A3E0FAA326
:081DE000E04A7002C322D32285
:1017710078CB7C017D017BFF7A1079777E007F0C2D
:101781001208B178D77C017D017BFF7A1079837EC5
:10179100007F041208B1E49001DBF0A3F0A3F09004
:1017A10001DCF0A3F09001DCE0FEA3E0FFC39404B0
:1017B100EE64809480400302186074D72FF5827420
:1017C100013EF583E0F590209426121DAC9001DCDA
:1017D100E0FEA3E09001CB75F0031209CEEE75F0A7
:1017E10003A42583F583E09001DBF03094FD805064
:1017F100209526121DAC9001DCE0FEA3E09001CC07
:1018010075F0031209CEEE75F003A42583F583E08C
:101811009001DBF03095FD8027209632121DAC90AF
:1018210001DCE0FEA3E09001CD75F0031209CEEEDC
:1018310075F003A42583F583E09001DBF03096FD7C
:10184100121DAC9001DBE09001BBF0021D879001FD
:10185100DDE004F070069001DCE004F00217A690D0
:0718610001DBE09001BBF088
:01186800225D
:101D87009001BCE0D394024003121E2D9001BBE0EA
:101D9700FFA3E024BDF582E43401F583EFF0900161
:051DA700BCE004F02285
:101E2D00E49001BDF0A3F0A3F0A3F09001BCF0226B
:101CA100E4FF7E01EEFD3395E0FC74BD2DF58274F9
:101CB100013CF583E0FD600EEF75F00AA4FFED2F06
:101CC10024D0FF0E80DED3EE648094814001227F18
:011CD100FF13
:011CD20022EF
:101453009001BDE0642A6003021569121CA1EF121A
:101463000AD214AE00156901156902150E03156938
:1014730004153B0514B60B14BE0C14C60D14CE0E86
:1014830014D60F14DD1014E41514EB1614F217140C
:10149300F91815001915071A152028152629152DD1
:1014A3002A15342B1569FF0000155D9001CA746479
:1014B3000215599001AD74010215599001AD7402E2
:1014C3000215599001AD74030215599001AD7404CE
:1014D3000215599001AD7405807C9001AD740680AE
:1014E300759001AF7401806E9001AF7402806790B4
:1014F30001AF740380609001AF740480599001AF11
:10150300740580529001AF7406804B9001B1E07076
:10151300047F0180027F009001B1EF8039E49001E4
:10152300B380339001B37401802C9001B3740280B3
:10153300259001B37403801E9001BAE06008900106
:10154300B5E09001B4F09001BAE070047F0180022D
:101553007F009001BAEFF0021E2D121E2D7B017A3F
:0615630000790412108D56
:01156900225F
:101D0400EF14600C14600E240270129040008008DE
:101D1400904800800390500074FFF080037F0022FD
:0F1D24007F2C7E01121E1D904000E0FFE4F58031
:011D3300228D
:101BBC00E4FF121D047E007C017DF41209511C7D92
:101BCC00FF1209639001B0EFF0D3942D40087B0114
:101BDC007A00795280239001B1E0700330021190A9
:101BEC0001B0E0D3942340087B017A00795F80092F
:0C1BFC003002097B017A00796C12108D18
:011C080022B9
:100B3A007F01121D04EF75F01EA4FFAEF07C007D4C
:100B4A00FF1209639001AEEFF0A3E0147003020CE8
:100B5A00EB147003020CA0147003020C55147003FA
:100B6A00020C0A146050146003020E689001AEE091
:100B7A00FFC3941E5040EFC39419403A900001E01D
:100B8A0004F07006900000E004F0C3900001E094C5
:100B9A000A900000E09400500330021A9001CF74CA
:100BAA0001F0A37401F0741812156A7B017A0079B6
:100BBA00387D1E020E5A9001AEE0FFC394195040D0
:100BCA00EFC39414403A900001E004F070069000DC
:100BDA0000E004F0C3900001E0940A900000E09461
:100BEA0000500330021A9001CF7401F0A37401F08F
:100BFA00740812156A7B017A0079387D19020E5A37
:100C0A009001AEE0FFC394145041EFC3940F403BF0
:100C1A00900001E004F07006900000E004F0C39038
:100C2A000001E0940A900000E09400500330021B97
:100C3A009001CF7401F0A37400F0A374FC12156B39
:100C4A007B017A0079387D14020E5A9001AEE0FFDA
:100C5A00C3940F5041EFC3940A403B900001E00453
:100C6A00F07006900000E004F0C3900001E0940ADE
:100C7A00900000E09400500330021B9001CF7401F1
:100C8A00F0A37401F0A3749012156B7B017A0079BA
:100C9A00387D0F020E5A9001AEE0FFC3940A50410C
:100CAA00EFC39405403B900001E004F07006900009
:100CBA0000E004F0C3900001E0940A900000E09480
:100CCA0000500330021B9001CF7401F0A37401F0AD
:100CDA00A3748012156B7B017A0079387D0A020EA3
:100CEA005A9001AEE0FFC394055041EFC39404400B
:100CFA003B900001E004F07006900000E004F0C3AD
:100D0A00900001E0940A900000E094005003300241
:100D1A001B9001CF7401F0A37401F0A3746C121537
:100D2A006B7B017A0079387D05020E5A9001AEE09C
:100D3A00FFC394045041EFC39403403B900001E089
:100D4A0004F07006900000E004F0C3900001E09403
:100D5A000A900000E09400500330021B9001CF7407
:100D6A0001F0A37401F0A3745812156B7B017A0089
:100D7A0079387D04020E5A9001AEE0FFC394035005
:100D8A0040EFC39402403A900001E004F0700690EC
:100D9A000000E004F0C3900001E0940A900000E033
:100DAA009400500330021A9001CF7401F0A3740129
:100DBA00F0A3744412156B7B017A0079380D020E88
:100DCA005A9001AEE0FFC39402503EEFC394014033
:100DDA0038900001E004F07006900000E004F0C3CF
:100DEA00900001E0940A900000E094005003300261
:100DFA00189001CF7401F0A37401F0A37430121596
:100E0A006B7B017A00793880479001AEE0FFC3948A
:100E1A0001504BEFC394004045900001E004F0708C
:100E2A0006900000E004F0C3900001E0940A9000EC
:100E3A0000E0940050033002259001CF7401F0A322
:100E4A007401F0A3741C12156B7B017A0079381DAA
:100E5A00121E4C12108DE4900000F0A3F022300212
:0A0E6A00097B017A00794512108D12
:010E7400225B
:1019D6007F02121D04EF75F00CA4FFAEF07C007DB3
:1019E600FF1209639001B2EFF0640C606E90000381
:1019F600E004F07006900002E004F09001B3E014F9
:101A060060121460231460342403704730024412B9
:101A16001087803FC3900003E0940A900002E09490
:101A260000502B3002418026C3900003E094329090
:101A36000002E09400500330022D8012C390000390
:101A4600E09464900002E0940050033002191210F2
:101A5600878000E4900002F0A3F0223002097B01A7
:071A66007A0079AA12108D2D
:011A6D002256
:10186900908000E0540F9001B5F05401A3F090016D
:10187900B5E05402C3139001B7F09001B5E05404E8
:101889001313543F9001B8F09001B5E054081313B5
:1018990013541F9001B9F09001B5E0FF70030219CC
:1018A9002D9001BAE070429001B4E06F607690012A
:1018B900BA7401F09001B6E060097B017A0079B74A
:1018C90012108D9001B7E060097B017A0079C4128A
:1018D900108D9001B8E060097B017A0079D112106E
:1018E9008D9001B9E0604980339001B6E060097BD1
:1018F900017A0079B712108D9001B7E060097B0178
:101909007A0079C412108D9001B8E060097B017AE0
:101919000079D112108D9001B9E060147B017A0031
:1019290079DE80093002097B017A0079EB12108D8A
:01193900228B
:10167700E4FFFDFCA2B49200A200300101B35008C0
:10168700A20092013000010F0DBD00010CBC5DE40A
:10169700BDC0E1EF25E09001ACF0A3E024FE60348B
:1016A70014604A14606014607614700302173F24B4
:1016B7000560030217649001ACE0FFC3943740084C
:1016C700EF943C500302174EEFC3943C50030217AC
:1016D7006402175C9001ACE0FFC394414007EF94AC
:1016E7004650028062EFC39446407280689001AC16
:1016F700E0FFC3944B4007EF945050028049EFC37B
:1017070094504059804F9001ACE0FFC39455400777
:10171700EF945A50028030EFC3945A40408036907D
:1017270001ACE0FFC3945F4007EF94645002801759
:10173700EFC394644027801D9001ACE0FFC3946918
:10174700400DEF946E50087B017A00791E8017EFE9
:10175700C3946E40087B017A007911800930020931
:091767007B017A00792B12108D30
:011770002256
:10133B00121E0C7FE87E03121DB0121C097BFF7A74
:10134B0010790DE4FDFF121C5B7A10791E121C55EF
:10135B007FFC7E08121DB07BFF7A10792FE4FDFF16
:10136B00121C5B7A107940121C55E49001BBF09073
:10137B0001BBE06423600512177180F3121B5F122F
:10138B00000302140C9001BBE06423700302143BB6
:10139B00121DD0500A1211EAE49001CAF08050904D
:1013AB0001CAE070147BFF7A107951FDFF121C5BB0
:1013BB007BFF7A107962121C579001B0E0FB7D0322
:1013CB00E4FF121AFA9001B2E0FB7D0BE4FF121A54
:1013DB00FA9001AEE0FB7D037F01121AFA9001AC8B
:1013EB00E0FB7D0B7F01121AFA9001CAE004F012A8
:1013FB0017711214539001CAE0B46418D20212167A
:10140B0077D2021219D6D202121BBCD202120B3A9D
:10141B00D2028016C202121677C2021219D6C2026B
:10142B00121BBCC202120B3AC202121869021390B1
:10143B007BFF7A0E79B9E4FDFF121C5B7BFF7A0E02
:08144B0079B9121C5702137558
:03000000021A6E73
:0C1A6E00787FE4F6D8FD758120021AB5DF
:1007E100E709F608DFFA8046E709F208DFFA803EFA
:1007F10088828C83E709F0A3DFFA8032E309F608E7
:10080100DFFA8078E309F208DFFA807088828C834E
:10081100E309F0A3DFFA806489828A83E0A3F60802
:10082100DFFA805889828A83E0A3F208DFFA804CDC
:1008310080D280FA80C680D4806980F280338010B3
:1008410080A680EA809A80A880DA80E280CA80331C
:1008510089828A83ECFAE493A3C8C582C8CCC58394
:10086100CCF0A3C8C582C8CCC583CCDFE9DEE78064
:100871000D89828A83E493A3F608DFF9ECFAA9F0E3
:10088100EDFB2289828A83ECFAE0A3C8C582C8CC39
:10089100C583CCF0A3C8C582C8CCC583CCDFEADE52
:1008A100E880DB89828A83E493A3F208DFF980CCB4
:1008B10088F0EF60010E4E60C388F0ED2402B404AD
:1008C1000050B9F582EB2402B4040050AF23234554
:0608D10082239008317340
:1008D700BB010689828A83E0225002E722BBFE021F
:0908E700E32289828A83E4932252
:1008F000BB010CE58229F582E5833AF583E02250BD
:1009000006E92582F8E622BBFE06E92582F8E22206
:0D091000E58229F582E5833AF583E4932220
:10091D00BB010689828A83F0225002F722BBFE01B9
:02092D00F322B3
:10092F00F8BB010DE58229F582E5833AF583E8F0FE
:10093F00225006E92582C8F622BBFE05E92582C8AA
:02094F00F22292
:10095100EF8DF0A4A8F0CF8CF0A428CE8DF0A42EBA
:02096100FE2274
:10096300BC000BBE0029EF8DF084FFADF022E4CC78
:10097300F875F008EF2FFFEE33FEEC33FCEE9DEC41
:10098300984005FCEE9DFE0FD5F0E9E4CEFD22ED87
:10099300F8F5F0EE8420D21CFEADF075F008EF2FD1
:1009A300FFED33FD4007985006D5F0F222C398FDC2
:0509B3000FD5F0EA225F
:1009B800A3F8E0C5F025F0F0E582158270021583F2
:0609C800E0C838F0E8224F
:0C09CE00A42582F582E5F03583F5832234
:1009DA00BB010789828A83020B0A5005E9F8020AD9
:1009EA00F8BBFE05E9F8020B1C89828A83020B2EEA
:1009FA00BB011A89828A83D0F0D0E0F8D0E0F9D01E
:100A0A00E0FAD0E0FBE8C0E0C0F0020B135016E9B0
:100A1A00F8D083D082D0E0F9D0E0FAD0E0FBC082EF
:100A2A00C083020B01BBFE16E9F8D083D082D0E066
:0F0A3A00F9D0E0FAD0E0FBC082C083020B252286
:100A4900BB010DE58229F582E5833AF583020B0A9C
:100A59005007E92582F8020AF8BBFE07E92582F862
:100A6900020B1CE58229F582E5833AF583020B2EF8
:100A7900BB0120E58229F582E5833AF583D0F0D0E0
:100A8900E0F8D0E0F9D0E0FAD0E0FBE8C0E0C0F04F
:100A9900020B135018E92582F8D083D082D0E0F9EF
:100AA900D0E0FAD0E0FBC082C083020B01BBFE1884
:100AB900E92582F8D083D082D0E0F9D0E0FAD0E0FD
:090AC900FBC082C083020B252250
:100AD200D083D082F8E4937012740193700DA3A3B3
:100AE20093F8740193F5828883E4737402936860C7
:060AF200EFA3A3A380DFC7
:101A7A0002133BE493A3F8E493A34003F68001F234
:101A8A0008DFF48029E493A3F85407240CC8C3336D
:101A9A00C4540F4420C8834004F456800146F6DF3C
:101AAA00E4800B0102040810204080901E3DE47E71
:101ABA00019360BCA3FF543F30E509541FFEE49331
:101ACA00A360010ECF54C025E060A840B8E493A3F8
:101ADA00FAE493A3F8E493A3C8C582C8CAC583CA23
:101AEA00F0A3C8C582C8CAC583CADFE9DEE780BEDB
:011E4B000096
:090AF800E6FB08E6FA08E6F92223
:090B0100EBF608EAF608E9F62219
:090B0A00E0FBA3E0FAA3E0F922EC
:090B1300EBF0A3EAF0A3E9F022E3
:090B1C00E2FB08E2FA08E2F9220A
:090B2500EBF208EAF208E9F22201
:0C0B2E00E493FB740193FA740293F92223
:00000001FF
